:020000040000FA
:020000000528D1
:08000800312883168501013047
:1000100086008312850186018C018D018E018F017E
:1000200092019301940195017E3092009300940017
:1000300095008B100B168B17150886000514792078
:100040000510140886008514792085101308860091
:10005000051579200511120886008515792085116E
:1000600019288B1C0900850186018C0A0A300C02B4
:10007000031D3B283F280C086E20920019288C0194
:100080000C086E2092008D0A0A300D02031D4928CB
:100090004D280D086E20930019288D010D086E2043
:1000A00093008E0A0A300E02031D57285B280E08A3
:1000B0006E20940019288E010E086E2094008F0A7D
:1000C0000A300F02031D652869280F086E2095006D
:1000D00019288F010F086E209500192882077E3499
:1000E0000C34B6349E34CC34DA34FA340E34FE3464
:1000F000DE340630B200B20B7E2808005030B30068
:06010000B30B80287B28F0
:02400E00FB3F76
:00000001FF
